{
  "_format": "hh-sol-artifact-1",
  "contractName": "SwagToken",
  "sourceName": "contracts/SwagToken.sol",
  "abi": [
    {
      "inputs": [],
      "stateMutability": "nonpayable",
      "type": "constructor"
    },
    {
      "anonymous": false,
      "inputs": [
        {
          "indexed": true,
          "internalType": "address",
          "name": "owner",
          "type": "address"
        },
        {
          "indexed": true,
          "internalType": "address",
          "name": "spender",
          "type": "address"
        },
        {
          "indexed": false,
          "internalType": "uint256",
          "name": "value",
          "type": "uint256"
        }
      ],
      "name": "Approval",
      "type": "event"
    },
    {
      "anonymous": false,
      "inputs": [
        {
          "indexed": true,
          "internalType": "address",
          "name": "from",
          "type": "address"
        },
        {
          "indexed": true,
          "internalType": "address",
          "name": "to",
          "type": "address"
        },
        {
          "indexed": false,
          "internalType": "uint256",
          "name": "value",
          "type": "uint256"
        }
      ],
      "name": "Transfer",
      "type": "event"
    },
    {
      "inputs": [],
      "name": "CLAIM_AMOUNT",
      "outputs": [
        {
          "internalType": "uint256",
          "name": "",
          "type": "uint256"
        }
      ],
      "stateMutability": "view",
      "type": "function"
    },
    {
      "inputs": [
        {
          "internalType": "address",
          "name": "owner",
          "type": "address"
        },
        {
          "internalType": "address",
          "name": "spender",
          "type": "address"
        }
      ],
      "name": "allowance",
      "outputs": [
        {
          "internalType": "uint256",
          "name": "",
          "type": "uint256"
        }
      ],
      "stateMutability": "view",
      "type": "function"
    },
    {
      "inputs": [
        {
          "internalType": "address",
          "name": "spender",
          "type": "address"
        },
        {
          "internalType": "uint256",
          "name": "amount",
          "type": "uint256"
        }
      ],
      "name": "approve",
      "outputs": [
        {
          "internalType": "bool",
          "name": "",
          "type": "bool"
        }
      ],
      "stateMutability": "nonpayable",
      "type": "function"
    },
    {
      "inputs": [
        {
          "internalType": "address",
          "name": "account",
          "type": "address"
        }
      ],
      "name": "balanceOf",
      "outputs": [
        {
          "internalType": "uint256",
          "name": "",
          "type": "uint256"
        }
      ],
      "stateMutability": "view",
      "type": "function"
    },
    {
      "inputs": [],
      "name": "decimals",
      "outputs": [
        {
          "internalType": "uint8",
          "name": "",
          "type": "uint8"
        }
      ],
      "stateMutability": "view",
      "type": "function"
    },
    {
      "inputs": [
        {
          "internalType": "address",
          "name": "spender",
          "type": "address"
        },
        {
          "internalType": "uint256",
          "name": "subtractedValue",
          "type": "uint256"
        }
      ],
      "name": "decreaseAllowance",
      "outputs": [
        {
          "internalType": "bool",
          "name": "",
          "type": "bool"
        }
      ],
      "stateMutability": "nonpayable",
      "type": "function"
    },
    {
      "inputs": [
        {
          "internalType": "address",
          "name": "spender",
          "type": "address"
        },
        {
          "internalType": "uint256",
          "name": "addedValue",
          "type": "uint256"
        }
      ],
      "name": "increaseAllowance",
      "outputs": [
        {
          "internalType": "bool",
          "name": "",
          "type": "bool"
        }
      ],
      "stateMutability": "nonpayable",
      "type": "function"
    },
    {
      "inputs": [
        {
          "internalType": "address",
          "name": "recipient",
          "type": "address"
        }
      ],
      "name": "mintToUser",
      "outputs": [],
      "stateMutability": "nonpayable",
      "type": "function"
    },
    {
      "inputs": [],
      "name": "name",
      "outputs": [
        {
          "internalType": "string",
          "name": "",
          "type": "string"
        }
      ],
      "stateMutability": "view",
      "type": "function"
    },
    {
      "inputs": [],
      "name": "owner",
      "outputs": [
        {
          "internalType": "address",
          "name": "",
          "type": "address"
        }
      ],
      "stateMutability": "view",
      "type": "function"
    },
    {
      "inputs": [],
      "name": "symbol",
      "outputs": [
        {
          "internalType": "string",
          "name": "",
          "type": "string"
        }
      ],
      "stateMutability": "view",
      "type": "function"
    },
    {
      "inputs": [],
      "name": "totalSupply",
      "outputs": [
        {
          "internalType": "uint256",
          "name": "",
          "type": "uint256"
        }
      ],
      "stateMutability": "view",
      "type": "function"
    },
    {
      "inputs": [
        {
          "internalType": "address",
          "name": "to",
          "type": "address"
        },
        {
          "internalType": "uint256",
          "name": "amount",
          "type": "uint256"
        }
      ],
      "name": "transfer",
      "outputs": [
        {
          "internalType": "bool",
          "name": "",
          "type": "bool"
        }
      ],
      "stateMutability": "nonpayable",
      "type": "function"
    },
    {
      "inputs": [
        {
          "internalType": "address",
          "name": "from",
          "type": "address"
        },
        {
          "internalType": "address",
          "name": "to",
          "type": "address"
        },
        {
          "internalType": "uint256",
          "name": "amount",
          "type": "uint256"
        }
      ],
      "name": "transferFrom",
      "outputs": [
        {
          "internalType": "bool",
          "name": "",
          "type": "bool"
        }
      ],
      "stateMutability": "nonpayable",
      "type": "function"
    }
  ],
  "bytecode": "0x60806040523480156200001157600080fd5b506040518060400160405280600a81526020016929bbb0b3902a37b5b2b760b11b815250604051806040016040528060048152602001635357414760e01b815250816003908162000063919062000215565b50600462000072828262000215565b5050600580546001600160a01b03191633908117909155620000a0915069d3c21bcecceda1000000620000a6565b62000309565b6001600160a01b038216620001015760405162461bcd60e51b815260206004820152601f60248201527f45524332303a206d696e7420746f20746865207a65726f206164647265737300604482015260640160405180910390fd5b8060026000828254620001159190620002e1565b90915550506001600160a01b038216600081815260208181526040808320805486019055518481527fddf252ad1be2c89b69c2b068fc378daa952ba7f163c4a11628f55a4df523b3ef910160405180910390a35050565b505050565b634e487b7160e01b600052604160045260246000fd5b600181811c908216806200019c57607f821691505b602082108103620001bd57634e487b7160e01b600052602260045260246000fd5b50919050565b601f8211156200016c57600081815260208120601f850160051c81016020861015620001ec5750805b601f850160051c820191505b818110156200020d57828155600101620001f8565b505050505050565b81516001600160401b0381111562000231576200023162000171565b620002498162000242845462000187565b84620001c3565b602080601f831160018114620002815760008415620002685750858301515b600019600386901b1c1916600185901b1785556200020d565b600085815260208120601f198616915b82811015620002b25788860151825594840194600190910190840162000291565b5085821015620002d15787850151600019600388901b60f8161c191681555b5050505050600190811b01905550565b808201808211156200030357634e487b7160e01b600052601160045260246000fd5b92915050565b610a8f80620003196000396000f3fe608060405234801561001057600080fd5b50600436106100ea5760003560e01c806370a082311161008c578063a457c2d711610066578063a457c2d7146101e3578063a9059cbb146101f6578063dba96a8e14610209578063dd62ed3e1461021e57600080fd5b806370a08231146101875780638da5cb5b146101b057806395d89b41146101db57600080fd5b806323b872dd116100c857806323b872dd14610142578063270ef38514610155578063313ce56714610165578063395093511461017457600080fd5b806306fdde03146100ef578063095ea7b31461010d57806318160ddd14610130575b600080fd5b6100f7610257565b60405161010491906108d9565b60405180910390f35b61012061011b366004610943565b6102e9565b6040519015158152602001610104565b6002545b604051908152602001610104565b61012061015036600461096d565b610303565b61013468056bc75e2d6310000081565b60405160128152602001610104565b610120610182366004610943565b610327565b6101346101953660046109a9565b6001600160a01b031660009081526020819052604090205490565b6005546101c3906001600160a01b031681565b6040516001600160a01b039091168152602001610104565b6100f7610366565b6101206101f1366004610943565b610375565b610120610204366004610943565b61040c565b61021c6102173660046109a9565b61041a565b005b61013461022c3660046109cb565b6001600160a01b03918216600090815260016020908152604080832093909416825291909152205490565b606060038054610266906109fe565b80601f0160208091040260200160405190810160405280929190818152602001828054610292906109fe565b80156102df5780601f106102b4576101008083540402835291602001916102df565b820191906000526020600020905b8154815290600101906020018083116102c257829003601f168201915b5050505050905090565b6000336102f78185856104c0565b60019150505b92915050565b6000336103118582856105e4565b61031c858585610676565b506001949350505050565b3360008181526001602090815260408083206001600160a01b03871684529091528120549091906102f79082908690610361908790610a38565b6104c0565b606060048054610266906109fe565b3360008181526001602090815260408083206001600160a01b0387168452909152812054909190838110156103ff5760405162461bcd60e51b815260206004820152602560248201527f45524332303a2064656372656173656420616c6c6f77616e63652062656c6f77604482015264207a65726f60d81b60648201526084015b60405180910390fd5b61031c82868684036104c0565b6000336102f7818585610676565b6005546001600160a01b031633146104605760405162461bcd60e51b81526020600482015260096024820152682737ba1037bbb732b960b91b60448201526064016103f6565b6001600160a01b0381166104aa5760405162461bcd60e51b8152602060048201526011602482015270125b9d985b1a59081c9958da5c1a595b9d607a1b60448201526064016103f6565b6104bd8168056bc75e2d6310000061081a565b50565b6001600160a01b0383166105225760405162461bcd60e51b8152602060048201526024808201527f45524332303a20617070726f76652066726f6d20746865207a65726f206164646044820152637265737360e01b60648201526084016103f6565b6001600160a01b0382166105835760405162461bcd60e51b815260206004820152602260248201527f45524332303a20617070726f766520746f20746865207a65726f206164647265604482015261737360f01b60648201526084016103f6565b6001600160a01b0383811660008181526001602090815260408083209487168084529482529182902085905590518481527f8c5be1e5ebec7d5bd14f71427d1e84f3dd0314c0f7b2291e5b200ac8c7c3b925910160405180910390a3505050565b6001600160a01b03838116600090815260016020908152604080832093861683529290522054600019811461067057818110156106635760405162461bcd60e51b815260206004820152601d60248201527f45524332303a20696e73756666696369656e7420616c6c6f77616e636500000060448201526064016103f6565b61067084848484036104c0565b50505050565b6001600160a01b0383166106da5760405162461bcd60e51b815260206004820152602560248201527f45524332303a207472616e736665722066726f6d20746865207a65726f206164604482015264647265737360d81b60648201526084016103f6565b6001600160a01b03821661073c5760405162461bcd60e51b815260206004820152602360248201527f45524332303a207472616e7366657220746f20746865207a65726f206164647260448201526265737360e81b60648201526084016103f6565b6001600160a01b038316600090815260208190526040902054818110156107b45760405162461bcd60e51b815260206004820152602660248201527f45524332303a207472616e7366657220616d6f756e7420657863656564732062604482015265616c616e636560d01b60648201526084016103f6565b6001600160a01b03848116600081815260208181526040808320878703905593871680835291849020805487019055925185815290927fddf252ad1be2c89b69c2b068fc378daa952ba7f163c4a11628f55a4df523b3ef910160405180910390a3610670565b6001600160a01b0382166108705760405162461bcd60e51b815260206004820152601f60248201527f45524332303a206d696e7420746f20746865207a65726f20616464726573730060448201526064016103f6565b80600260008282546108829190610a38565b90915550506001600160a01b038216600081815260208181526040808320805486019055518481527fddf252ad1be2c89b69c2b068fc378daa952ba7f163c4a11628f55a4df523b3ef910160405180910390a35050565b600060208083528351808285015260005b81811015610906578581018301518582016040015282016108ea565b506000604082860101526040601f19601f8301168501019250505092915050565b80356001600160a01b038116811461093e57600080fd5b919050565b6000806040838503121561095657600080fd5b61095f83610927565b946020939093013593505050565b60008060006060848603121561098257600080fd5b61098b84610927565b925061099960208501610927565b9150604084013590509250925092565b6000602082840312156109bb57600080fd5b6109c482610927565b9392505050565b600080604083850312156109de57600080fd5b6109e783610927565b91506109f560208401610927565b90509250929050565b600181811c90821680610a1257607f821691505b602082108103610a3257634e487b7160e01b600052602260045260246000fd5b50919050565b808201808211156102fd57634e487b7160e01b600052601160045260246000fdfea264697066735822122000051ad101c40d24eb5e36561b26644bb3eb8176db6c3df2c97e859023d0752e64736f6c63430008130033",
  "linkReferences": {},
  "deployedLinkReferences": {}
}