{
  "_format": "hh-sol-artifact-1",
  "contractName": "UniversalBuilderTrophy",
  "sourceName": "contracts/UniversalBuilderTrophy.sol",
  "abi": [
    {
      "inputs": [],
      "stateMutability": "nonpayable",
      "type": "constructor"
    },
    {
      "anonymous": false,
      "inputs": [
        {
          "indexed": true,
          "internalType": "address",
          "name": "owner",
          "type": "address"
        },
        {
          "indexed": true,
          "internalType": "address",
          "name": "approved",
          "type": "address"
        },
        {
          "indexed": true,
          "internalType": "uint256",
          "name": "tokenId",
          "type": "uint256"
        }
      ],
      "name": "Approval",
      "type": "event"
    },
    {
      "anonymous": false,
      "inputs": [
        {
          "indexed": true,
          "internalType": "address",
          "name": "owner",
          "type": "address"
        },
        {
          "indexed": true,
          "internalType": "address",
          "name": "operator",
          "type": "address"
        },
        {
          "indexed": false,
          "internalType": "bool",
          "name": "approved",
          "type": "bool"
        }
      ],
      "name": "ApprovalForAll",
      "type": "event"
    },
    {
      "anonymous": false,
      "inputs": [
        {
          "indexed": true,
          "internalType": "address",
          "name": "from",
          "type": "address"
        },
        {
          "indexed": true,
          "internalType": "address",
          "name": "to",
          "type": "address"
        },
        {
          "indexed": true,
          "internalType": "uint256",
          "name": "tokenId",
          "type": "uint256"
        }
      ],
      "name": "Transfer",
      "type": "event"
    },
    {
      "anonymous": false,
      "inputs": [
        {
          "indexed": true,
          "internalType": "address",
          "name": "recipient",
          "type": "address"
        },
        {
          "indexed": true,
          "internalType": "uint256",
          "name": "tokenId",
          "type": "uint256"
        },
        {
          "indexed": false,
          "internalType": "string",
          "name": "eventName",
          "type": "string"
        },
        {
          "indexed": false,
          "internalType": "bytes32",
          "name": "nfcId",
          "type": "bytes32"
        }
      ],
      "name": "TrophyMinted",
      "type": "event"
    },
    {
      "inputs": [
        {
          "internalType": "address",
          "name": "",
          "type": "address"
        },
        {
          "internalType": "uint256",
          "name": "",
          "type": "uint256"
        }
      ],
      "name": "approve",
      "outputs": [],
      "stateMutability": "pure",
      "type": "function"
    },
    {
      "inputs": [
        {
          "internalType": "address",
          "name": "owner",
          "type": "address"
        }
      ],
      "name": "balanceOf",
      "outputs": [
        {
          "internalType": "uint256",
          "name": "",
          "type": "uint256"
        }
      ],
      "stateMutability": "view",
      "type": "function"
    },
    {
      "inputs": [
        {
          "internalType": "uint256",
          "name": "tokenId",
          "type": "uint256"
        }
      ],
      "name": "getApproved",
      "outputs": [
        {
          "internalType": "address",
          "name": "",
          "type": "address"
        }
      ],
      "stateMutability": "view",
      "type": "function"
    },
    {
      "inputs": [
        {
          "internalType": "uint256",
          "name": "tokenId",
          "type": "uint256"
        }
      ],
      "name": "getTrophyDetails",
      "outputs": [
        {
          "components": [
            {
              "internalType": "string",
              "name": "eventName",
              "type": "string"
            },
            {
              "internalType": "string",
              "name": "chainName",
              "type": "string"
            },
            {
              "internalType": "uint256",
              "name": "timestamp",
              "type": "uint256"
            },
            {
              "internalType": "bytes32",
              "name": "nfcId",
              "type": "bytes32"
            }
          ],
          "internalType": "struct UniversalBuilderTrophy.Trophy",
          "name": "",
          "type": "tuple"
        }
      ],
      "stateMutability": "view",
      "type": "function"
    },
    {
      "inputs": [
        {
          "internalType": "address",
          "name": "user",
          "type": "address"
        }
      ],
      "name": "getUserTrophies",
      "outputs": [
        {
          "internalType": "uint256[]",
          "name": "",
          "type": "uint256[]"
        }
      ],
      "stateMutability": "view",
      "type": "function"
    },
    {
      "inputs": [
        {
          "internalType": "address",
          "name": "owner",
          "type": "address"
        },
        {
          "internalType": "address",
          "name": "operator",
          "type": "address"
        }
      ],
      "name": "isApprovedForAll",
      "outputs": [
        {
          "internalType": "bool",
          "name": "",
          "type": "bool"
        }
      ],
      "stateMutability": "view",
      "type": "function"
    },
    {
      "inputs": [
        {
          "internalType": "address",
          "name": "recipient",
          "type": "address"
        },
        {
          "internalType": "string",
          "name": "eventName",
          "type": "string"
        },
        {
          "internalType": "string",
          "name": "chainName",
          "type": "string"
        },
        {
          "internalType": "string",
          "name": "imageURI",
          "type": "string"
        },
        {
          "internalType": "bytes32",
          "name": "nfcId",
          "type": "bytes32"
        }
      ],
      "name": "mintTrophy",
      "outputs": [
        {
          "internalType": "uint256",
          "name": "",
          "type": "uint256"
        }
      ],
      "stateMutability": "nonpayable",
      "type": "function"
    },
    {
      "inputs": [],
      "name": "name",
      "outputs": [
        {
          "internalType": "string",
          "name": "",
          "type": "string"
        }
      ],
      "stateMutability": "view",
      "type": "function"
    },
    {
      "inputs": [],
      "name": "nextTokenId",
      "outputs": [
        {
          "internalType": "uint256",
          "name": "",
          "type": "uint256"
        }
      ],
      "stateMutability": "view",
      "type": "function"
    },
    {
      "inputs": [
        {
          "internalType": "bytes32",
          "name": "",
          "type": "bytes32"
        }
      ],
      "name": "nfcClaimed",
      "outputs": [
        {
          "internalType": "bool",
          "name": "",
          "type": "bool"
        }
      ],
      "stateMutability": "view",
      "type": "function"
    },
    {
      "inputs": [],
      "name": "owner",
      "outputs": [
        {
          "internalType": "address",
          "name": "",
          "type": "address"
        }
      ],
      "stateMutability": "view",
      "type": "function"
    },
    {
      "inputs": [
        {
          "internalType": "uint256",
          "name": "tokenId",
          "type": "uint256"
        }
      ],
      "name": "ownerOf",
      "outputs": [
        {
          "internalType": "address",
          "name": "",
          "type": "address"
        }
      ],
      "stateMutability": "view",
      "type": "function"
    },
    {
      "inputs": [
        {
          "internalType": "address",
          "name": "",
          "type": "address"
        },
        {
          "internalType": "address",
          "name": "",
          "type": "address"
        },
        {
          "internalType": "uint256",
          "name": "",
          "type": "uint256"
        }
      ],
      "name": "safeTransferFrom",
      "outputs": [],
      "stateMutability": "pure",
      "type": "function"
    },
    {
      "inputs": [
        {
          "internalType": "address",
          "name": "",
          "type": "address"
        },
        {
          "internalType": "address",
          "name": "",
          "type": "address"
        },
        {
          "internalType": "uint256",
          "name": "",
          "type": "uint256"
        },
        {
          "internalType": "bytes",
          "name": "",
          "type": "bytes"
        }
      ],
      "name": "safeTransferFrom",
      "outputs": [],
      "stateMutability": "pure",
      "type": "function"
    },
    {
      "inputs": [
        {
          "internalType": "address",
          "name": "",
          "type": "address"
        },
        {
          "internalType": "bool",
          "name": "",
          "type": "bool"
        }
      ],
      "name": "setApprovalForAll",
      "outputs": [],
      "stateMutability": "pure",
      "type": "function"
    },
    {
      "inputs": [
        {
          "internalType": "bytes4",
          "name": "interfaceId",
          "type": "bytes4"
        }
      ],
      "name": "supportsInterface",
      "outputs": [
        {
          "internalType": "bool",
          "name": "",
          "type": "bool"
        }
      ],
      "stateMutability": "view",
      "type": "function"
    },
    {
      "inputs": [],
      "name": "symbol",
      "outputs": [
        {
          "internalType": "string",
          "name": "",
          "type": "string"
        }
      ],
      "stateMutability": "view",
      "type": "function"
    },
    {
      "inputs": [
        {
          "internalType": "uint256",
          "name": "tokenId",
          "type": "uint256"
        }
      ],
      "name": "tokenURI",
      "outputs": [
        {
          "internalType": "string",
          "name": "",
          "type": "string"
        }
      ],
      "stateMutability": "view",
      "type": "function"
    },
    {
      "inputs": [
        {
          "internalType": "address",
          "name": "",
          "type": "address"
        },
        {
          "internalType": "address",
          "name": "",
          "type": "address"
        },
        {
          "internalType": "uint256",
          "name": "",
          "type": "uint256"
        }
      ],
      "name": "transferFrom",
      "outputs": [],
      "stateMutability": "pure",
      "type": "function"
    },
    {
      "inputs": [
        {
          "internalType": "uint256",
          "name": "",
          "type": "uint256"
        }
      ],
      "name": "trophies",
      "outputs": [
        {
          "internalType": "string",
          "name": "eventName",
          "type": "string"
        },
        {
          "internalType": "string",
          "name": "chainName",
          "type": "string"
        },
        {
          "internalType": "uint256",
          "name": "timestamp",
          "type": "uint256"
        },
        {
          "internalType": "bytes32",
          "name": "nfcId",
          "type": "bytes32"
        }
      ],
      "stateMutability": "view",
      "type": "function"
    },
    {
      "inputs": [
        {
          "internalType": "address",
          "name": "",
          "type": "address"
        },
        {
          "internalType": "uint256",
          "name": "",
          "type": "uint256"
        }
      ],
      "name": "userTrophies",
      "outputs": [
        {
          "internalType": "uint256",
          "name": "",
          "type": "uint256"
        }
      ],
      "stateMutability": "view",
      "type": "function"
    }
  ],
  "bytecode": "0x608060405260016009553480156200001657600080fd5b506040518060400160405280601881526020017f556e6976657273616c204275696c6465722054726f70687900000000000000008152506040518060400160405280600381526020016215509560ea1b81525081600090816200007a919062000149565b50600162000089828262000149565b5050600a80546001600160a01b031916331790555062000215565b634e487b7160e01b600052604160045260246000fd5b600181811c90821680620000cf57607f821691505b602082108103620000f057634e487b7160e01b600052602260045260246000fd5b50919050565b601f8211156200014457600081815260208120601f850160051c810160208610156200011f5750805b601f850160051c820191505b8181101562000140578281556001016200012b565b5050505b505050565b81516001600160401b03811115620001655762000165620000a4565b6200017d81620001768454620000ba565b84620000f6565b602080601f831160018114620001b557600084156200019c5750858301515b600019600386901b1c1916600185901b17855562000140565b600085815260208120601f198616915b82811015620001e657888601518255948401946001909101908401620001c5565b5085821015620002055787850151600019600388901b60f8161c191681555b5050505050600190811b01905550565b6115c380620002256000396000f3fe608060405234801561001057600080fd5b50600436106101475760003560e01c80637a0d4328116100c8578063b6d902751161008c578063c9f36d2311610066578063c9f36d23146102dc578063d84a78b6146102ef578063e985e9c51461030f57600080fd5b8063b6d902751461029b578063b88d4fde146102bb578063c87b56dd146102c957600080fd5b80637a0d43281461022c5780638da5cb5b1461024f57806395d89b4114610262578063a06bb50f1461026a578063a22cb4651461028d57600080fd5b806342842e0e1161010f57806342842e0e146101c95780636352211e146101dc57806370a08231146101ef57806371af5d281461021057806375794a3c1461022357600080fd5b806301ffc9a71461014c57806306fdde0314610174578063081812fc14610189578063095ea7b3146101b457806323b872dd146101c9575b600080fd5b61015f61015a366004610f7a565b61034b565b60405190151581526020015b60405180910390f35b61017c61039d565b60405161016b9190610ff4565b61019c610197366004611007565b61042f565b6040516001600160a01b03909116815260200161016b565b6101c76101c236600461103c565b610456565b005b6101c76101d7366004611066565b6104a3565b61019c6101ea366004611007565b6104eb565b6102026101fd3660046110a2565b61054b565b60405190815260200161016b565b61020261021e36600461103c565b6105d1565b61020260095481565b61015f61023a366004611007565b60076020526000908152604090205460ff1681565b600a5461019c906001600160a01b031681565b61017c610602565b61027d610278366004611007565b610611565b60405161016b94939291906110bd565b6101c76101c23660046110f6565b6102ae6102a9366004611007565b610749565b60405161016b9190611132565b6101c76101d7366004611218565b61017c6102d7366004611007565b610932565b6102026102ea3660046112b4565b6109a6565b6103026102fd3660046110a2565b610ba9565b60405161016b9190611355565b61015f61031d366004611399565b6001600160a01b03918216600090815260056020908152604080832093909416825291909152205460ff1690565b60006001600160e01b031982166380ac58cd60e01b148061037c57506001600160e01b03198216635b5e139f60e01b145b8061039757506301ffc9a760e01b6001600160e01b03198316145b92915050565b6060600080546103ac906113cc565b80601f01602080910402602001604051908101604052809291908181526020018280546103d8906113cc565b80156104255780601f106103fa57610100808354040283529160200191610425565b820191906000526020600020905b81548152906001019060200180831161040857829003601f168201915b5050505050905090565b600061043a82610c15565b506000908152600460205260409020546001600160a01b031690565b60405162461bcd60e51b815260206004820152601f60248201527f536f756c626f756e643a20417070726f76616c206e6f7420616c6c6f7765640060448201526064015b60405180910390fd5b60405162461bcd60e51b815260206004820152601f60248201527f536f756c626f756e643a205472616e73666572206e6f7420616c6c6f77656400604482015260640161049a565b6000818152600260205260408120546001600160a01b0316806103975760405162461bcd60e51b8152602060048201526018602482015277115490cdcc8c4e881a5b9d985b1a59081d1bdad95b88125160421b604482015260640161049a565b60006001600160a01b0382166105b55760405162461bcd60e51b815260206004820152602960248201527f4552433732313a2061646472657373207a65726f206973206e6f7420612076616044820152683634b21037bbb732b960b91b606482015260840161049a565b506001600160a01b031660009081526003602052604090205490565b600860205281600052604060002081815481106105ed57600080fd5b90600052602060002001600091509150505481565b6060600180546103ac906113cc565b60066020526000908152604090208054819061062c906113cc565b80601f0160208091040260200160405190810160405280929190818152602001828054610658906113cc565b80156106a55780601f1061067a576101008083540402835291602001916106a5565b820191906000526020600020905b81548152906001019060200180831161068857829003601f168201915b5050505050908060010180546106ba906113cc565b80601f01602080910402602001604051908101604052809291908181526020018280546106e6906113cc565b80156107335780601f1061070857610100808354040283529160200191610733565b820191906000526020600020905b81548152906001019060200180831161071657829003601f168201915b5050505050908060020154908060030154905084565b6107776040518060800160405280606081526020016060815260200160008152602001600080191681525090565b6000828152600260205260409020546001600160a01b03166107db5760405162461bcd60e51b815260206004820152601560248201527f54726f70687920646f6573206e6f742065786973740000000000000000000000604482015260640161049a565b60008281526006602052604090819020815160808101909252805482908290610803906113cc565b80601f016020809104026020016040519081016040528092919081815260200182805461082f906113cc565b801561087c5780601f106108515761010080835404028352916020019161087c565b820191906000526020600020905b81548152906001019060200180831161085f57829003601f168201915b50505050508152602001600182018054610895906113cc565b80601f01602080910402602001604051908101604052809291908181526020018280546108c1906113cc565b801561090e5780601f106108e35761010080835404028352916020019161090e565b820191906000526020600020905b8154815290600101906020018083116108f157829003601f168201915b50505050508152602001600282015481526020016003820154815250509050919050565b606061093d82610c15565b600061095460408051602081019091526000815290565b90506000815111610974576040518060200160405280600081525061099f565b8061097e84610c77565b60405160200161098f929190611406565b6040516020818303038152906040525b9392505050565b600a546000906001600160a01b031633146109ef5760405162461bcd60e51b81526020600482015260096024820152682737ba1037bbb732b960b91b604482015260640161049a565b6001600160a01b038616610a395760405162461bcd60e51b8152602060048201526011602482015270125b9d985b1a59081c9958da5c1a595b9d607a1b604482015260640161049a565b60008281526007602052604090205460ff1615610a8e5760405162461bcd60e51b8152602060048201526013602482015272139190c8185b1c9958591e4818db185a5b5959606a1b604482015260640161049a565b6009805460009182610a9f83611435565b909155506040805160808101825288815260208082018990524282840152606082018790526000848152600690915291909120815192935090918190610ae590826114ab565b5060208201516001820190610afa90826114ab565b506040828101516002830155606090920151600390910155600084815260076020908152828220805460ff191660019081179091556001600160a01b038b16835260088252928220805493840181558252902001819055610b5b8782610d0a565b80876001600160a01b03167f0b78733b9944135294d54c571fe955e1cde2a14a66919d974f04e8c47830b8388886604051610b9792919061156b565b60405180910390a39695505050505050565b6001600160a01b038116600090815260086020908152604091829020805483518184028101840190945280845260609392830182828015610c0957602002820191906000526020600020905b815481526020019060010190808311610bf5575b50505050509050919050565b6000818152600260205260409020546001600160a01b0316610c745760405162461bcd60e51b8152602060048201526018602482015277115490cdcc8c4e881a5b9d985b1a59081d1bdad95b88125160421b604482015260640161049a565b50565b60606000610c8483610ea2565b600101905060008167ffffffffffffffff811115610ca457610ca461118c565b6040519080825280601f01601f191660200182016040528015610cce576020820181803683370190505b5090508181016020015b600019016f181899199a1a9b1b9c1cb0b131b232b360811b600a86061a8153600a8504945084610cd857509392505050565b6001600160a01b038216610d605760405162461bcd60e51b815260206004820181905260248201527f4552433732313a206d696e7420746f20746865207a65726f2061646472657373604482015260640161049a565b6000818152600260205260409020546001600160a01b031615610dc55760405162461bcd60e51b815260206004820152601c60248201527f4552433732313a20746f6b656e20616c7265616479206d696e74656400000000604482015260640161049a565b6000818152600260205260409020546001600160a01b031615610e2a5760405162461bcd60e51b815260206004820152601c60248201527f4552433732313a20746f6b656e20616c7265616479206d696e74656400000000604482015260640161049a565b6001600160a01b0382166000818152600360209081526040808320805460010190558483526002909152808220805473ffffffffffffffffffffffffffffffffffffffff19168417905551839291907fddf252ad1be2c89b69c2b068fc378daa952ba7f163c4a11628f55a4df523b3ef908290a45050565b60008072184f03e93ff9f4daa797ed6e38ed64bf6a1f0160401b8310610ee15772184f03e93ff9f4daa797ed6e38ed64bf6a1f0160401b830492506040015b6d04ee2d6d415b85acef81000000008310610f0d576d04ee2d6d415b85acef8100000000830492506020015b662386f26fc100008310610f2b57662386f26fc10000830492506010015b6305f5e1008310610f43576305f5e100830492506008015b6127108310610f5757612710830492506004015b60648310610f69576064830492506002015b600a83106103975760010192915050565b600060208284031215610f8c57600080fd5b81356001600160e01b03198116811461099f57600080fd5b60005b83811015610fbf578181015183820152602001610fa7565b50506000910152565b60008151808452610fe0816020860160208601610fa4565b601f01601f19169290920160200192915050565b60208152600061099f6020830184610fc8565b60006020828403121561101957600080fd5b5035919050565b80356001600160a01b038116811461103757600080fd5b919050565b6000806040838503121561104f57600080fd5b61105883611020565b946020939093013593505050565b60008060006060848603121561107b57600080fd5b61108484611020565b925061109260208501611020565b9150604084013590509250925092565b6000602082840312156110b457600080fd5b61099f82611020565b6080815260006110d06080830187610fc8565b82810360208401526110e28187610fc8565b604084019590955250506060015292915050565b6000806040838503121561110957600080fd5b61111283611020565b91506020830135801515811461112757600080fd5b809150509250929050565b60208152600082516080602084015261114e60a0840182610fc8565b90506020840151601f1984830301604085015261116b8282610fc8565b91505060408401516060840152606084015160808401528091505092915050565b634e487b7160e01b600052604160045260246000fd5b600067ffffffffffffffff808411156111bd576111bd61118c565b604051601f8501601f19908116603f011681019082821181831017156111e5576111e561118c565b816040528093508581528686860111156111fe57600080fd5b858560208301376000602087830101525050509392505050565b6000806000806080858703121561122e57600080fd5b61123785611020565b935061124560208601611020565b925060408501359150606085013567ffffffffffffffff81111561126857600080fd5b8501601f8101871361127957600080fd5b611288878235602084016111a2565b91505092959194509250565b600082601f8301126112a557600080fd5b61099f838335602085016111a2565b600080600080600060a086880312156112cc57600080fd5b6112d586611020565b9450602086013567ffffffffffffffff808211156112f257600080fd5b6112fe89838a01611294565b9550604088013591508082111561131457600080fd5b61132089838a01611294565b9450606088013591508082111561133657600080fd5b5061134388828901611294565b95989497509295608001359392505050565b6020808252825182820181905260009190848201906040850190845b8181101561138d57835183529284019291840191600101611371565b50909695505050505050565b600080604083850312156113ac57600080fd5b6113b583611020565b91506113c360208401611020565b90509250929050565b600181811c908216806113e057607f821691505b60208210810361140057634e487b7160e01b600052602260045260246000fd5b50919050565b60008351611418818460208801610fa4565b83519083019061142c818360208801610fa4565b01949350505050565b60006001820161145557634e487b7160e01b600052601160045260246000fd5b5060010190565b601f8211156114a657600081815260208120601f850160051c810160208610156114835750805b601f850160051c820191505b818110156114a25782815560010161148f565b5050505b505050565b815167ffffffffffffffff8111156114c5576114c561118c565b6114d9816114d384546113cc565b8461145c565b602080601f83116001811461150e57600084156114f65750858301515b600019600386901b1c1916600185901b1785556114a2565b600085815260208120601f198616915b8281101561153d5788860151825594840194600190910190840161151e565b508582101561155b5787850151600019600388901b60f8161c191681555b5050505050600190811b01905550565b60408152600061157e6040830185610fc8565b9050826020830152939250505056fea26469706673582212200e072a5a9b1b94ee3c3a861d7b86305664dfd0438dd247dd977fe0525253480f64736f6c63430008130033",
  "linkReferences": {},
  "deployedLinkReferences": {}
}